:020000040000FA
:10000000A00600206D0200007102000073020000D3
:100010007502000077020000790200000000000075
:100020000000000000000000000000007B02000053
:100030007D020000000000007F0200008D2400000F
:10004000830200008302000083020000830200009C
:10005000830200008302000083020000830200008C
:10006000830200008302000083020000830200007C
:10007000830200008302000083020000830200006C
:10008000830200008302000083020000830200005C
:10009000830200008302000083020000830200004C
:1000A000830200008302000083020000830200003C
:1000B0008302000083020000FD170000830200009D
:1000C000830200008302000083020000830200001C
:1000D000830200008302000083020000830200000C
:1000E00083020000830200008302000083020000FC
:1000F00083020000830200008302000083020000EC
:1001000083020000830200008302000083020000DB
:1001100083020000830200008302000083020000CB
:1001200083020000830200008302000083020000BB
:1001300083020000830200008302000083020000AB
:1001400000000000000000000000000000000000AF
:10015000830200008302000083020000830200008B
:10016000000000000000000000000000000000008F
:10017000000000000000000000000000000000007F
:10018000000000000000000000000000000000006F
:10019000000000000000000000000000000000005F
:1001A000000000000000000000000000000000004F
:1001B000830200008302000083020000830200002B
:1001C000830200008302000083020000830200001B
:1001D000830200008302000083020000830200000B
:1001E00083020000830200008302000083020000FB
:1001F00083020000830200008302000083020000EB
:10020000830200008302000083020000000000005F
:1002100083020000830200008302000083020000CA
:1002200083020000830200008302000083020000BA
:1002300083020000830200008302000083020000AA
:10024000830200008302000083020000830200009A
:10025000830200008302000083020000830200008A
:1002600083020000830200008302000000F00AB84D
:10027000FEE7FEE7FEE7FEE7FEE7FEE7FEE7FEE756
:10028000FEE7FEE700F002F800F098F814A696E802
:10029000000CB244B344DA4501D100F08FF8BAE85B
:1002A0000F000FA696E83000A5EB040504EB060747
:1002B000AAEB0704A7F101074FEA15154FEA34141A
:1002C000A4F10104AC4201D300F078F813F0010F5F
:1002D00018BFFB1A43F0010300F001F8DBE71847F1
:1002E00070350000803500007047000000230024B6
:1002F00000250026103A28BF78C1FBD8520728BF36
:1003000030C148BF0B6070476E2900F037817029FB
:1003100000F07982662902F07F85652902F07C85EC
:10032000672902F07985612902F0788503681B0A44
:1003300028BF41F08001692900F0E480642900F0C1
:10034000E180752900F0DE806F2900F007827829AE
:1003500000F04582E92900F0A181E42900F09E81A6
:10036000F52900F09B81EF2900F00482F82900F0C4
:1003700044820368DB0928BF41F08001632900F053
:100380004587732900F04A87E32900F05587F32950
:1003900000F05A87002070471FB500F0ABFF040043
:1003A0000020002102F022FD401C6060002000219E
:1003B00002F006FDE0601FBD10B510BD00F06CFF3F
:1003C0001146FFF7E9FF02F0DDF801F049F803B448
:1003D000FFF7F2FF03BC01F091F8000072B670471E
:1003E00062B67047EFF3108072B6704780F31088E2
:1003F000704730BF704702480249014A024B7047BC
:10040000A0020020A0060020A00200200FB41CB50E
:10041000084B06AA7B4469460090059800F0C7F88F
:1004200004460020694600F0D5F820461CBC5DF863
:1004300014FB0000BD01000070477047704770B5A5
:10044000044685690068C10601D5302600E02026F3
:10045000C00707D070BDD4E9012130469047206A1B
:10046000401C20626D1EF6D570BD70B504468569CE
:100470000078C00707D170BDD4E901212020904742
:10048000206A401C20626D1EF6D570BD09684A05C1
:1004900001D540B27047C905FCD500B27047096864
:1004A0004A0501D5C0B27047C905FCD580B2704776
:1004B00070B50C460546012A05D02878800600D57F
:1004C000EA69002302E0012305E05B1C934202D2AB
:1004D000E05C0028F9D1A869E618C01AA861286A6A
:1004E000184428622846FFF7AAFF04E0D5E9012155
:1004F00014F8010B9047B442F8D32846FFF7B5FF34
:1005000070BD00002DE9F0410646002410687529F1
:10051000314616A510D0FFF7B9FF002802DA404295
:1005200013A507E031688A0701D512A502E0490743
:1005300004D511A5012401E0FFF7B1FF00210A2233
:1005400006F1240709E0B0FBF2FCB0FBF2F302FB7A
:100550001C00303078541846491C0028F3D123463B
:100560002A463046BDE8F04100F061BA00000000C4
:100570002D0000002B000000200000001168026820
:10058000006A530501D508700AE0D30501D508803B
:1005900006E0130603D5C217C1E9000200E00860B7
:1005A0000120704701694A1C02610878704700B554
:1005B0008FB0CDE901310021059105497944CDE99C
:1005C00003101146684600F029F90FB000BD000085
:1005D000E5FFFFFF0A6802F8010B0A6070470000A0
:1005E0002DE9FF5F15468A460446DFF8AC80F844E3
:1005F0000027D8E900103E46CDE9001010E03AF897
:1006000016106A4602A800F023FE411C07D021788C
:10061000890603D5E269391891420DD80744761C42
:100620002078800602D5E069B84205DDAE42E6DBFF
:100630003AF816000028E2D1A069C01BA06120464C
:10064000FFF7FDFED8E90010CDE90010002017E00B
:100650003AF818106A4602A800F0FAFDB0F1FF3F20
:1006600081460BD000250DF1080B05E0D4E90121EE
:100670001BF8050090476D1C4D45F7D308F10100AC
:10068000B0428046E4DB206A384420622046FFF70F
:10069000ECFEBDE8FF9F00002E2800002DE9F04190
:1006A0008046D21D22F007020025D2E90002F5297A
:1006B00015A614D0011E72F1000106DA0023D0EB5A
:1006C000030063EB020211A608E0D8F800108B07C4
:1006D00001D50FA602E0490701D50EA60125114656
:1006E000002408F1240704E000F05CF930323A55A8
:1006F000641C50EA0102F7D12B463246214640469F
:10070000BDE8F04100F093B9000000002D000000AA
:100710002B0000002000000030B4002100F1240470
:1007200008E002F00705D208303542EA4372DB08E0
:100730006554491C52EA0305F3D10468002310A252
:10074000250708D504F020040C4304D0C469012314
:100750000CA2641EC46130BC00F069B910B5044637
:1007600021461068FFF79BFE02462046BDE8104078
:100770000023D1E7D21D22F00701D1E90023CBE706
:100780000000000030000000F0B40D4601880905AB
:1007900002D5214C7C4402E01F4C7C440E340021E5
:1007A00000F1240608E002F00F071209E75D42EAB3
:1007B00003721B097754491C52EA0307F3D10278EC
:1007C0000023120704D5702D06D009B1022311347D
:1007D0002246F0BC00F02BB901231034F8E770B5C5
:1007E00004460D4621461068FFF759FE0246294689
:1007F0002046BDE870400023C6E7D21D22F0070363
:10080000D3E90023C0E70368126843F020030360C4
:100810000823C3610023B7E7902600002DE9F05FAD
:10082000894604464FF0000ADFF874B1FB44C0F873
:1008300020A02046E1688847002874D0252806D0EB
:10084000D4E901219047206A401C2062F1E700268C
:100850005F462046E16888472028054607DB312DA2
:1008600005D2781910F8200C08B10643F1E7B0075B
:1008700001D526F00406C4F81CA00027C4F818A06F
:100880002A2D09D0284602F093FA38B304EB8708E2
:10089000303DC8F8185019E059F8041B204604EB05
:1008A00087029161E1688847012F054618D1E06908
:1008B000002820DA26F020061DE0D8F8180000EB0A
:1008C000800005EB40003038C8F818002046E16889
:1008D0008847054602F06CFA0028EED1012F0AD0B5
:1008E0002E2D08D12046E16888477F1C0546022F3F
:1008F00046F02006C4DBA069002803DA404246F037
:100900000106A061F00701D026F010066C2D0BD077
:10091000682D09D04C2D39D06A2D35D0742D35D0A5
:100920007A2D33D016E038E0E1682F46204688471C
:10093000B842054609D16C2F26D04FF48060E1689B
:10094000064320468847054604E06C2F1AD04FF432
:10095000807006430DB3A5F14100192802D8203557
:1009600046F400664A462946204626604E46FFF772
:10097000CBFC80B101280BD0F61D26F0070000F15A
:10098000080956E74020E4E78020D8E70020D6E7B2
:1009900006F104094DE7284652E7206ABDE8F09FBA
:1009A0002026000030B5B0F10A0271F100034FEAD1
:1009B000900E4EEA817EB0EB0E0061EB91014FEAA2
:1009C000101E4EEA017E10EB0E0041EB11114FEAB2
:1009D000102E4EEA016E10EB0E0041EB11214FEA92
:1009E000104E4EEA014E10EB0E0041EB1141401843
:1009F00041F100014FEAD00040EA41704FEAD101D5
:100A00004FEA810444EA907410EB800544EB010442
:100A10006D1944EB0404521BA3414FF0000348BF7F
:100A20000A3200D530BD401C41F1000130BD2DE936
:100A3000F0470D4699469246044600F124080168A5
:100A4000880604D5E06921F01001216000E0012052
:100A5000A84201DD471B00E00027A1697A1902EBDB
:100A60000900081AA0612078C00602D42046FFF7CA
:100A7000E6FC002608E0D4E901211AF806009047B8
:100A8000206A401C761C20624E45F4DB2078C006AC
:100A90000AD52046FFF7D3FC06E0D4E90121302037
:100AA0009047206A401C2062381EA7F10107F4DC41
:100AB00007E0D4E9012118F805009047206A401C9E
:100AC0002062281EA5F10105F3DC2046FFF7CDFCCE
:100AD0002078000602D50220BDE8F0870120FBE760
:100AE0002DE9FF4F0C461E464FF0FF378BB0D2E981
:100AF0000001DDF860800A908A46C1F30A5505B905
:100B00003D46002108464FF00000BAF1000F00F406
:100B1000400005DA00EB80004FF4400101EA50008C
:100B20004FEA9059B9F1010F00DDB9460A9850EA31
:100B30004A000ED044F61050A5F2FF3545432F145D
:100B4000B8F1000F1ED07542291E1EDDC9F100024A
:100B50001CE0B8F1010F4FF0000001D0302103E09C
:100B6000F24305E02154401CB042FBDB304600223A
:100B7000002121540B99C1F80880C1E900200FB071
:100B8000BDE8F08FBD1B6D1CDEE74A4600DA694206
:100B900006A800F0F3FB06AB93E8070003AB83E87D
:100BA000070050460A9901F026FD8DE80700A0F5E0
:100BB00000501F3800900398002D0ADD42F21F01FB
:100BC0004A460844002303A90390684601F090FFB9
:100BD00009E0A0F500504A461F38002303A90390FE
:100BE000684601F09AFF8DE807000004000C03D06E
:100BF0004FF0FF30410800E01046B8F1000F03D07D
:100C00000022009215461EE0751E05D4FFF7CAFEAD
:100C1000303262556D1EF9D5B3460122084302D029
:100C200000227F1C04E02078302801D100227F1EA2
:100C3000002A099784D01DE0112D07DAFFF7B2FED4
:100C4000303262556D1C50EA0102F5D1084302D0E2
:100C50000098C8B10EE00021681E05E0235C625CCC
:100C600063542254401E491C8142F7DBAB46A81B4B
:100C7000401E0990002004F80B000B98099AC0F858
:100C80000880C0E9002B7AE711264FF0000857E7EB
:100C90002DE9F04F88460446D21D22F0070191B09D
:100CA000D1E90001CDE90A0102F06EF802460B9885
:100CB000C00F01D02D2007E02068810701D52B202F
:100CC00002E0202101EAC000032A099001D0072A8E
:100CD00005DB03464146204600F010FB0BE120787F
:100CE000800601D5E06900E00620B8F1650F814675
:100CF00006D0B8F1660F18D0B8F1670F70D131E0A7
:100D00000020B9F1110F009001DB112301E009F17E
:100D100001030AAA01A90CA8FFF7E2FEDDE90C70A5
:100D2000002609F10105834647E001204B4600906B
:100D30004FF000470AAA01A90CA8FFF7D1FEDDE990
:100D40000DB00C995D46002610B909F101000D188F
:100D5000B9EB050003D4C0F1FF3609F10105A5EB9D
:100D600009002BE0B9F1010F01DA4FF00109002071
:100D7000B9F1110F0090484601DD112300E0034650
:100D80000AAA01A90CA8FFF7ABFEDDE90C704D46DD
:100D900000268346207800070AD4AB4500DA5D467A
:100DA00001A8012D04DD411911F8011C302907D0DB
:100DB0004F4502DA17F1040F04DA012082460FE0F2
:100DC0006D1EEEE7002F02DCED1B3E4403E0781CB5
:100DD000A84200DD7D1CB81B00F1010A4FF000475E
:100DE0002078000703D4AA4501DB4FF0FF3A002129
:100DF000B7F1004F0DF143088DF8431024D00220C5
:100E00002B23002F01DA7F422D230A21021EA0F19D
:100E1000010000DC5FB197FBF1FC97FBF1F201FBF5
:100E20001C7C17460CF1300C08F801CDEEE7A8F158
:100E3000010003702188090501D5452100E06521E5
:100E4000A0F1010800F8011C09980FA9A1EB0807FF
:100E5000FF1D00B10120411901EBEA70A16938447E
:100E6000081A401EA0612078C00602D42046FFF771
:100E7000E6FA099828B1D4E901219047206A401C7C
:100E800020622078C00622D52046FFF7D8FA1EE05F
:100E9000002E04DBB34502DD01A8805D00E03020B8
:100EA000D4E901219047206A401C2062761CAAF1F7
:100EB00001005FEA000A0AD100F01CFAC06801686C
:100EC000405CD4E901219047206A401C2062281E22
:100ED000A5F10105DCDC07E0D4E9012118F8010BDC
:100EE0009047206A401C2062381EA7F10107F3DCFE
:100EF0002046FFF7BAFA032011B041E62DE9F04F82
:100F000004460D46D21D22F0070089B0D0E90097B3
:100F10004846394601F038FF0246F80F01D02D232C
:100F200007E02068810701D52B2302E0202101EA98
:100F3000C0038DF820300BB1012000E00020032A0F
:100F4000824601D0072A04DB2946204600F0D6F964
:100F50003FE12078800601D40D2500E0E569C7F364
:100F60000A560D2D49DA00214FEA175B08464FF06B
:100F70000000002F00F4400007DA00EB80004FF47F
:100F8000400100EBD07001EA60008115012901DD0C
:100F90004FF0FF3100224FEA850CBCF1180F06D349
:100FA0001346ACF118004FF08052C24003E04FF4FA
:100FB000801323FA0CF30CF10C0CBCF1200F04D3BA
:100FC000ACF1200C09FA0CF001E007FA0CF0002952
:100FD0004FF0004801DD18B90FE00ED140450CD3A9
:100FE00019EB02095F4121B9404502D19F4329EA2B
:100FF0000209BBEB175F00D0761C2088000502D5E4
:101000007B48784402E07A487844193808AA3023AB
:1010100002F80A30037C0AF10101002E0AF1020AEB
:1010200053546A4602DC4FF0300101E04FF03101C9
:101030004FF001088DF8001002D0A6F2FF3603E051
:1010400059EA470100D06B4E002D02DC21780907D8
:1010500004D54FF002082E218DF80110C44600215E
:101060000BE0C7F303433F01C35C491C6D1E02F84C
:101070000830052908F1010801DA002DF1DC002112
:101080000CE000EB1973491C1B786D1E082902F84F
:1010900008304FEA091908F1010801DA002DF0DCE7
:1010A00021688B0602D516E0A8F10108E04505DDB0
:1010B00002EB080313F8013C302BF5D0B8F1000F18
:1010C00009DD02EB080313F8013C2E2B03D10907BD
:1010D00001D4A8F10108002D05DD3E2102F8081019
:1010E0006D1E08F10108407C002E02F8080008F18E
:1010F000010804DA2D20764202F8080002E02B20D5
:1011000002F808000A214FF47A70864208F10108BB
:101110000BDB96FBF0F3303302F8083096FBF0F36C
:1011200008F1010800FB136601E0642E0CDB64206B
:1011300096FBF0F3303302F8083096FBF0F308F139
:10114000010800FB136601E00A2E06DB96FBF1F0B6
:10115000303002F8080008F1010896FBF1F001FBBD
:101160001060303002F80800A16908F1010808EBAE
:10117000050202EB0A00081AA0612078C00602D41A
:101180002046FFF75CF9216A08AE01EB0A002062F5
:1011900004E0D4E9012116F8010B9047BAF1010AE5
:1011A000F7D22078C00602D52046FFF748F96E46F0
:1011B00009E016F8010B3E280FD0D4E90121904731
:1011C000206A401C2062B8F10108F2D22046FFF7E5
:1011D0004CF909B00320BDE8F08F206A2844206252
:1011E00003E0D4E90121302090476D1EEBD3F8E7EE
:1011F0006E1E000002FCFFFF10B5436913B1AFF390
:10120000008001E0FFF754F9012010BD127800F1D1
:1012100024010A7000224A700122EDE711684FF0A4
:10122000FF32E9E710B5436913B1AFF3008001E085
:10123000FFF7D6F9012010BD128800F12401828445
:101240000022C2840122EDE711684FF0FF32E9E786
:101250002DE9F04116460C46054600F043F80368B8
:1012600093F80101012807D0FF2C12D8185D80B136
:1012700001202C70BDE8F081D3F8070132462146E9
:1012800003F20713C7182846BC46BDE8F041002307
:1012900060474FF0FF30EDE7754600F0EBF8AE46E3
:1012A00005006946534620F00700854618B020B572
:1012B000FFF7A1F8BDE820404FF000064FF000070F
:1012C0004FF000084FF0000BAC46ACE8C009ACE8AA
:1012D000C009ACE8C009ACE8C00921F007018D469F
:1012E0007047000010B500F005F8001D10BD00BFEC
:1012F000FD1A000000487047200000202DE9F04151
:101300001F46044603260168072A01F4006004DB37
:1013100008B116A505E016A503E008B115A500E083
:1013200015A521F010002060A069C01EA0610FB1BA
:10133000401EA0612046FFF782F84FB1D4E9012199
:1013400038469047206A401C2062C01C206206E09C
:10135000206AFAE7D4E9012115F8010B9047761EBF
:10136000F8D22046FFF781F8BDE8F0814E414E00EB
:101370006E616E00494E4600696E66002DE9F047C9
:10138000814616468AB0354878440DC88DE80D0070
:1013900032487844801C03AC0DC884E80D0041F647
:1013A0009B300844372190FBF1F290FBF1F5A5F159
:1013B000800501FB12041B3C02D56442012000E0C1
:1013C0000020DFF898A080460027FA44AAF1BE0A60
:1013D0000EE0E0070AD03246684607EB47010123DA
:1013E0000AEB810101F099FB8DE8070064107F1C76
:1013F000002CEED1194F7F44AE3F19E0E80715D01D
:1014000007EB04100DF1180A90E80E008AE80E00B0
:10141000C068F04201D1981908903246012306A90C
:1014200003A801F07AFB03AB83E807006D10641C8E
:10143000002DE3D14FF0010332466946B8F1000FA9
:1014400003A802D001F054FB01E001F066FBC9E9FA
:101450000001C9F808200AB0BDE8F087781B000039
:1014600010B50446AFF300802046BDE81040FEF7FB
:10147000AEBF0000004870470000002000000000E0
:1014800030B44FF0013C50F8042B51F8043BCCFA37
:1014900052F4D51A20D1FCB950F8042B51F8043B72
:1014A000CCFA52F4D51A17D1B4B950F8042B51F82C
:1014B000043BCCFA52F4D51A0ED16CB950F8042B77
:1014C00051F8043BCCFA52F4D51A05D1002CDAD0ED
:1014D00030BC4FF00000704729BAB1FA81F111F029
:1014E0001801D1F120008440F2D1CA40CB4012F063
:1014F000FF0213F0FF0330BCD01A704701491820D7
:10150000ABBEFEE7260002007047000081B000205D
:10151000ADF8020049F22801C4F20301086840F066
:1015200008000860FFE749F20400C4F20300006805
:101530000007002801D4FFE7F5E749F2A800C4F24C
:10154000030000686FF31F30ADF8020049F20C0190
:10155000C4F2030108200860BDF8020001B0704722
:101560004EF20861C4F20F01086840F010000860F4
:10157000FFE74EF20860C4F20F00006800F01000B0
:10158000102801D0FFE7F4E74EF23861C4F20F01F2
:10159000086840F002000860FFE74EF23860C4F2CD
:1015A0000F00006800F00200022801D0FFE7F4E716
:1015B00044F21C51C4F20201086820F020000860C7
:1015C00044F20041C4F20201086820F020000860E3
:1015D00044F22851C4F20201086840F0200008607B
:1015E00044F22041C4F20201086840F02000086083
:1015F00049F20001C4F20301086820F00800086005
:1016000049F6C472C4F203020120106049F22002BC
:10161000C4F2030240F22310106049F21402C4F233
:101620000302106820F47040106049F2A002C4F276
:1016300003020820106049F2A402C4F2030206204B
:10164000106049F20802C4F20302106820F008009A
:101650001060086840F008000860704781B0ADF87D
:1016600002008DF8011000208DF80000BDF8020086
:101670009DF80110484340F60101C0F28001A0FB33
:101680000110C0088DF800009DF800009DF80110C1
:10169000884205DDFFE79DF801008DF80000FFE7B7
:1016A0009DF8000001B0704780B582B040F29820EC
:1016B000C2F200000078C00708B9FFE772E000F04E
:1016C00059FB00208DF80700FFE79DF8070002286E
:1016D0003FDCFFE79DF8070000EB400140F26C00A3
:1016E000C2F2000000EB8100007AC00750B9FFE7AA
:1016F0009DF8071040F29000C2F20000405C012803
:1017000020DBFFE79DF8070000EB400140F26C0092
:10171000C2F2000000EB8100406890B1FFE79DF845
:10172000070000EB400140F26C00C2F2000000EB49
:10173000810210F8210051785268002300F05CFC0F
:10174000FFE7FFE7FFE79DF8070001308DF807008E
:10175000BBE740F29400C2F20000007AC00758B123
:10176000FFE740F29402C2F200021078517852680A
:10177000002300F041FCFFE740F26000C2F20000ED
:10178000007AC00758B1FFE740F26002C2F20002DF
:10179000107851785268002300F02EFCFFE700F02B
:1017A00001FBFFE702B080BD80B586B000F0C8FA4B
:1017B00043F2E570C0F2000000F00CFC43F6330089
:1017C000C0F2000000F006FC43F61900C0F2000071
:1017D00000F000FC43F64000C0F2000000F0FAFB0D
:1017E00043F64D01C0F2000101A800900222FEF76D
:1017F0000DFE009800F0EEFB06B080BD81B0002029
:101800008DF80300FFE79DF80300632807DCFFE77E
:10181000FFE79DF8030001308DF80300F3E745F280
:101820001440C4F202000068C006002832D5FFE769
:1018300045F21C41C4F202011020086045F2FC315F
:10184000C4F202010820086040F26000C2F2000009
:10185000007AC007E8B9FFE740F26001C2F2000178
:101860000120087240F29400C2F20000027843F2B4
:101870009713C0F200039B7C02EB5302013A0A70FB
:1018800040780138487043F2FC00C0F20000486024
:10189000FFE7FFE745F21440C4F202000068C0070A
:1018A00090B1FFE745F21C41C4F20201012008603B
:1018B00040F29821C2F20001087045F2FC31C4F2F6
:1018C000020102200860FFE701B0704780B584B0D4
:1018D00040F29A21C2F200010020087040F29921E2
:1018E000C2F20001087040F29822C2F20002012107
:1018F00011700390FFE7039802280CDCFFE7039ABE
:1019000040F29001C2F2000100208854FFE70398E2
:1019100001300390EFE740F26C01C2F200010520B4
:1019200008700A234B7043F26E22C0F200024A6034
:101930000120019008724FF0190C81F80CC04B7314
:1019400002F1C80CC1F810C008754FF02D0C81F8D9
:1019500018C04B7602F5C872CA6181F82000FFF703
:10196000D5FDADF80A00BDF80A0043F29711C0F2A8
:1019700000010091897CC1F15401C9B2FFF76EFEEC
:10198000009A014601988DF809109DF8093040F23F
:101990009401C2F200010B702F234B704A60087251
:1019A00040F26001C2F200010020087204B080BD64
:1019B00080B582B000208DF8070040F26000C2F2CE
:1019C0000000007AC007002800F0AC80FFE740F27A
:1019D0006000C2F200004078092807DCFFE740F20F
:1019E0006001C2F200010020087207E040F26001CD
:1019F000C2F20001487803384870FFE700208DF8F4
:101A00000600FFE79DF80600022800F38A80FFE742
:101A10009DF8060000EB400140F26C00C2F20000AD
:101A200000EB8100007AC007002873D0FFE740F286
:101A30006000C2F20000007802309DF8061001EB51
:101A4000410240F26C01C2F2000111F822108842FA
:101A50005FDBFFE740F26000C2F2000000789DF813
:101A6000061001EB410240F26C01C2F2000111F8D4
:101A70002210103188424CDCFFE740F26000C2F2D5
:101A8000000040789DF8061001EB410240F26C0125
:101A9000C2F2000101EB82014978884239DCFFE79C
:101AA00040F26000C2F2000040789DF8061001EBA1
:101AB000410240F26C01C2F2000101EB820149785F
:101AC0000A39884225DBFFE79DF8060000EB40005D
:101AD00040F26C01C2F2000101EB800200201072A2
:101AE0009DF8062002EB420201EB820243F21E71D6
:101AF000C0F2000151609DF8063040F29002C2F23F
:101B000000020321D15440F26001C2F200010872C8
:101B100007E0FFE7FFE79DF8060001308DF80600BB
:101B200070E7FFE700208DF80500FFE79DF805004E
:101B3000022800F3A780FFE79DF8050000EB4001B5
:101B400040F26C00C2F2000000EB8100007AC00796
:101B500000286AD0FFE79DF8070001308DF80700E4
:101B60009DF8050000EB400240F26C00C2F200005C
:101B700010F82210013100F822109DF8051001EB39
:101B8000410110F821001030542820DBFFE79DF8B8
:101B9000050000EB400140F26C00C2F2000000EBD7
:101BA0008102002111729DF8053040F29002C2F2CC
:101BB00000020321D1549DF8051001EB410100EB17
:101BC000810143F21E70C0F20000486054E040F210
:101BD0009300C2F20000007898B9FFE79DF8051065
:101BE00043F2C642C0F20002C82011FB002001EB04
:101BF000410240F26C01C2F2000101EB8201486037
:101C000012E09DF8051043F26E22C0F20002C820D7
:101C100011FB002001EB410240F26C01C2F2000115
:101C200001EB82014860FFE725E09DF8051040F2D6
:101C30009000C2F20000405C01281BDBFFE79DF82A
:101C4000052040F29000C2F20000815C013981540D
:101C50009DF80510405C60B9FFE79DF8050000EBBA
:101C6000400240F26C01C2F20001C82001F82200DB
:101C7000FFE7FFE7FFE7FFE79DF8050001308DF87C
:101C8000050053E740F29300C2F20000007838B933
:101C9000FFE740F29301C2F200010120087006E064
:101CA00040F29301C2F2000100200870FFE7FFF745
:101CB0002DFCADF80200BDF8020043F29711C0F20E
:101CC0000001897CC1F15401C9B2FFF7C7FC40F2A1
:101CD0009401C2F2000108709DF8070070BBFFE795
:101CE00001208DF8010000208DF80000FFE79DF82D
:101CF0000000022815DCFFE79DF8001040F290007C
:101D0000C2F20000405C012804DBFFE700208DF8F0
:101D1000010006E0FFE79DF8000001308DF80000AB
:101D2000E5E79DF80100C00738B1FFE740F29821D0
:101D3000C2F2000100200870FFE7FFE702B080BD9B
:101D400080B582B000200190FFE70198B0F5FC7FDC
:101D500009DAFFE70120002100F0CCFBFFE7019842
:101D600001300190F1E70021084600F049FA02B085
:101D700080BD000081B000200090FFE70098B0F522
:101D8000FC7F0CDAFFE7009A40F2A001C2F20001EA
:101D900000208854FFE7009801300090EEE701B082
:101DA0007047000080B540F2A000C2F2000000F0D1
:101DB00001F880BD80B584B00390002101910846F0
:101DC00000F01EFA01980290FFE70298B0F5FC7F40
:101DD0000BDAFFE7039802994156012000F08AFBD5
:101DE000FFE7029801300290EFE704B080BD0000E9
:101DF00080B582B04EF21C61C4F20F01086840F059
:101E0000040008604EF20861C4F20F01086840F057
:101E100002000860FFE74EF20860C4F20F0000689D
:101E200000F00200022801D0FFE7F4E74EF208605C
:101E3000C4F20F000068019045F21C51C4F2000189
:101E4000086840F0B0000860086840F003000860CF
:101E500045F20041C4F20001086840F0B00008609B
:101E6000086840F00300086045F22851C4F2000100
:101E7000086820F0B0000860086820F003000860DF
:101E800045F22041C4F20001086840F0B00008604B
:101E9000086820F00300086045F22C51C4F20001EC
:101EA000086820F0FF0008600868C2F2220008609D
:101EB0004AF20401C4F20001086820F00200086040
:101EC000086820F0040008604AF6C872C4F20002F4
:101ED000106820F00F0010604AF21002C4F20002F5
:101EE0001068102363F3070010604AF20002C4F286
:101EF000000210684FF6C07398431060106820F01D
:101F0000300010601068072363F303001060086856
:101F100040F00200086045F20401C4F20001002014
:101F200008600190FFE70198092805D8FFE7FFE75F
:101F3000019801300190F6E745F20401C4F2000176
:101F40000120086000200090212100F0D3FA0098C1
:101F50006FF0470100F0CEFA0098042100F0CAFAB1
:101F60000098142100F0C6FA0098202100F0C2FA6F
:101F700000980C2100F0BEFA02B080BD80B584B09C
:101F80008DF80F0001200021019100F0B3FA0198B3
:101F90000290FFE70298042815DCFFE79DF80F0088
:101FA00000EB800042F61C71C0F200010844029967
:101FB000084410F9A01C012000F09CFAFFE70298E9
:101FC00001300290E6E70120002100F093FA04B00E
:101FD00080BD000080B582B00190FFE701980078D5
:101FE00040B1FFE701980078FFF7C8FF0198013082
:101FF0000190F3E702B080BD8AB08DF827008DF81C
:10200000261008928DF81F300898807C069008985A
:10201000807D0590059801281BDBFFE7069800EB03
:10202000D07121F00101401A98B9FFE79DF827000F
:102030000699084454280CDCFFE79DF82600059912
:102040000139884205DBFFE79DF82600312801DBD6
:10205000FFE7D2E09DF81F000F2804DBFFE70E200A
:102060008DF81F00FFE79DF82600C008ADF80800B6
:102070009DF82720BDF80800542100FB0120ADF891
:102080000A009DF8260000F007008DF807009DF873
:102090000710012000FA01F18DF807100899897ADC
:1020A00003910490FFE704980699059A514301EBC8
:1020B000D171B0EB610F00F3A080FFE7089803999E
:1020C000415C9DF81F00B0EB111F0CDAFFE79DF893
:1020D0000730BDF80A2040F2A001C2F20001885C7E
:1020E000184388540BE09DF80730BDF80A2040F2F1
:1020F000A001C2F20001885C98438854FFE7BDF854
:102100000A000130ADF80A0008980399405C00F01D
:102110000F009DF81F1088420CDDFFE79DF8073087
:10212000BDF80A2040F2A001C2F20001885C184309
:1021300088540BE09DF80730BDF80A2040F2A0015A
:10214000C2F20001885C98438854FFE7BDF80A009A
:102150000130ADF80A00039801300390049A069804
:1021600000EBD070411092FBF1F000FB1120002831
:102170003ED1FFE79DF80700022806DBFFE79DF848
:10218000070040088DF8070008E080208DF8070060
:10219000BDF808000138ADF80800FFE79DF82720DA
:1021A000BDF80800542100FB0120ADF80A00069894
:1021B00000EBD071481000EB907020F00300C0EBF2
:1021C000610001460091032811D80099DFE801F071
:1021D0000203070B0BE003980330039007E003981A
:1021E0000230039003E0039801300390FFE7FFE71C
:1021F000FFE704980130049055E70AB070470000EB
:1022000080B582B08DF807008DF806109DF80700A4
:102210000B2805DCFFE79DF80600062801DBFFE739
:1022200013E09DF80700C0EBC00040F0800041B211
:102230000020009000F05EF900989DF8061041F033
:10224000400149B200F056F9FFE702B080BD00003E
:1022500081B04EF27001C4F20F010091086840F0A5
:1022600000400860086840F4006008604EF26002B8
:10227000C4F20F02106820F4F8601060106800F5D6
:10228000A8601060086820F07000086008680860A6
:10229000086820F400500860086840F0804008603A
:1022A0000868042262F39C500860FFE74EF2500079
:1022B000C4F20F0000684006002801D4FFE7F5E7EC
:1022C0004EF27001C4F20F01086820F4006008604B
:1022D00001B0704780B5FFF733FD43F2E570C0F2FF
:1022E0000000FFF777FE43F2F270C0F20000FFF744
:1022F00071FE43F2FF70C0F20000FFF76BFE43F681
:102300002600C0F20000FFF765FE43F60C00C0F2A5
:102310000000FFF75FFE80BD4EF20861C4F20F01BE
:10232000086840F020000860FFE74EF20860C4F241
:102330000F00006800F02000202801D0FFE7F4E73C
:1023400045F22051C4F2020144F24B30C4F64F4032
:10235000086045F22451C4F20201086840F01F00F1
:10236000086045F21C53C4F20203186840F00E00E6
:10237000186045F2004CC4F2020CDCF8000040F09A
:102380000E00CCF8000045F22852C4F20202106898
:1023900020F00E00106045F22041C4F202010868EE
:1023A00020F00E000860DCF8000020F01100CCF8EE
:1023B0000000186840F01100186045F21053C4F294
:1023C0000203186840F011001860106820F0110036
:1023D0001060086820F01100086045F20441C4F262
:1023E0000201086820F01100086045F20841C4F2BB
:1023F0000201086820F01100086045F20C41C4F2A7
:102400000201086820F01100086045F21C41C4F286
:1024100002011120086045F21041C4F2020108686F
:1024200040F0110008604EF21C41CEF20001086835
:10243000202262F3174008604EF20011CEF2000134
:10244000086840F0804008607047000081B00020BC
:102450000090FFE700981D2815DCFFE7FFE740F23A
:102460009A20C2F200000078C00708B9FFE7F6E73B
:1024700040F29A21C2F2000100200870FFE70098A4
:1024800001300090E6E701B07047000040F29A2169
:10249000C2F2000101200870704700004EF21001E6
:1024A000CEF20001002008604EF21403CEF20003C9
:1024B00041F2FF12C0F27A021A604EF21802CEF216
:1024C00000021060072008607047000080B5FDF72B
:1024D00085FFFFF7BDFEFFF7E1FFFFF71DFFFFF7E9
:1024E0003FF8FFF785FCFFF745FCFFF75BFCFDF7C6
:1024F00077FF80BD81B08DF803008DF802109DF844
:10250000030020BBFFE7FFE74AF20C00C4F2000023
:102510000068C006002801D5FFE7F5E745F208018D
:10252000C4F20001002008609DF902004AF208018F
:10253000C4F200010860FFE74AF20C00C4F2000098
:102540000068C006002801D5FFE7F5E718E0FFE7BF
:102550004AF20C00C4F2000000688007002801D491
:10256000FFE7F5E745F20801C4F200010220086028
:102570009DF902004AF20801C4F200010860FFE779
:1025800001B0704780B582B000200190FFF79EFF38
:10259000FFE7FFF79FFEFFE740F29820C2F200003E
:1025A0000078C00708B9FFE7F6E7FFF78FF9FFF7F4
:1025B0007BF8FFE740F29820C2F200000078C007E5
:1025C000A0B1FFE740F29A20C2F200000078C007F5
:1025D00058B1FFE7FFF7ECF9FFF766F840F29A21F0
:1025E000C2F2000100200870FFE7E3E7FFF7DCF824
:1025F000FFF72CFFCDE75FEA400C08BF91F0000F1A
:102600004FEA8C234FEAC12243EA51514FEA1C5052
:1026100018BF00F5F0404FEA300018BF41F000410C
:102620005FEA6C5C00F02980BCF1FF3F08BF40F01E
:1026300080407047130C06BF12044FF0100C4FF08F
:10264000000C130E04BF12020CF1080C130F04BF90
:1026500012010CF1040C930F04BF92000CF1020C58
:10266000D30F04BF52000CF1010C11464FF00002D1
:10267000A0F11F00A0EB0C00704711F0004F08BF45
:10268000704731F000413FF4D5AF0B0C06BF090491
:102690004FF0100C4FF0000C0B0E04BF09020CF1B0
:1026A000080C0B0F04BF09010CF1040C8B0F04BFC5
:1026B00089000CF1020CCB0F04BF49000CF1010C96
:1026C000CCF1200322FA03F341EA030102FA0CF2EF
:1026D000A0EB0C0000F101007047000023F07F47E1
:1026E00020F07F4C80EA030000F00040ACEB0703D1
:1026F00003F57C5303F1FF032DE9804909B44FEA48
:10270000144324EA03484FEA154B25EA0B4E0FF217
:10271000042606EB13273E7803FB0667C7F5000780
:1027200007FB06F64FEAD64606F102064FEA543793
:1027300007FB066CCCF1005C4FEA1C472CEA074C07
:102740000CFB06F507FB06F404EB15464FEA96165C
:1027500049085FEA320234BF00204FF000404FEAE0
:10276000D13706FB07FC4FEA1C4C0CFB0BF7D21BC6
:1027700003FB0CF761EB07010CFB0EF7B0EB074016
:1027800072EB17420CFB08F734BFA2EB0742B2EB27
:10279000074261EB17414FEA0C444FEA910706FBF1
:1027A00007FC4FEA1C4C0CFB0BF7B0EBC74072EB7D
:1027B000573203FB0CF734BFA2EBC742B2EBC74260
:1027C00061EB57310CFB0EF7B0EBC70072EB5772A1
:1027D0000CFB08F734BFA2EBC702B2EBC70261EBF8
:1027E00057714FEA816141EA92114FEA826242EAEF
:1027F00090124FEA806004EBCC04039F4FEAD1377C
:1028000006FB07FC4FEA1C4C0CFB0BF7D21B03FB2F
:102810000CF761EB07010CFB0EF7B0EB074072EB16
:1028200017420CFB08F734BFA2EB0742B2EB07429A
:1028300061EB17414FEA8C5504EB9C244FEA91075A
:1028400006FB07FC4FEA1C4C0CFB0BF7B0EBC74038
:1028500072EB573203FB0CF734BFA2EBC742B2EB6B
:10286000C74261EB57310CFB0EF7B0EBC70072EBC0
:1028700057720CFB08F734BFA2EBC702B2EBC702DA
:1028800061EB57714FEA816141EA92114FEA82622E
:1028900042EA90124FEA806015EB4C2544F10004A7
:1028A0004FEAD13706FB07FC4FEA1C4C0CFB0BF739
:1028B000D21B03FB0CF761EB07010CFB0EF7B0EB2F
:1028C000074072EB17420CFB08F734BFA2EB07423C
:1028D000B2EB074261EB17414FEA813141EA924185
:1028E0004FEA823242EA90424FEA80304FEA0C7659
:1028F00015EB1C1544F1000448EA03434EEA0B486B
:102900004FF0000EB2EB080C71EB030724BF6246D8
:1029100039464EEB0E0E4FF0000B00185241494164
:102920004BEB0B0BB2EB080C71EB03077BF1000BCD
:1029300024BF624639464EEB0E0E4FF0000B0018D6
:10294000524149414BEB0B0BB2EB080C71EB030707
:102950007BF1000B24BF624639464EEB0E0E51EA66
:10296000020718BF46F0010616EB0E7655F100027D
:1029700054F1000103D5BDE88901BDE80088BDE838
:102980008901BDE80048B619524141EB0101A3F1AC
:102990000103704780807F7E7D7C7B7A79787776B3
:1029A00076757473727171706F6E6E6D6C6C6B6A2C
:1029B0006A696868676666656464636362616160CA
:1029C000605F5F5E5E5D5D5C5C5B5B5A5A59595847
:1029D00058575756565555555454535352525251B1
:1029E000515050504F4F4F4E4E4D4D4D4C4C4C4B07
:1029F0004B4B4A4A4A49494948484847474747464E
:102A00004646454545444444444343434342424289
:102A1000424141419C46002B30D477002BD04FEAF5
:102A200037071CB503B44FF010004FF01001BAF196
:102A3000000F06D0BCF1000FDCBF40F0080040F0F2
:102A400008014FF000000FBCBDE810400BF1010B76
:102A5000BBF1010F08BF5FEA170722BF12F10102A5
:102A600011F101014FF0004143F1000300F000407B
:102A700043EA00007047F9D35708D0E746EA064614
:102A80004FEA164613F1400F1FDD13F1200FDFBF91
:102A900016430A46002120335B42BED0C3F1200713
:102AA00046EA06464FEA164602FA07F746EA0706DE
:102AB00022FA03F2C3F1200701FA07F742EA0702FC
:102AC00021FA03F14FF00003A7E746EA020646EABF
:102AD00006464FEA164646EA0106BCBF46EA0646E7
:102AE000360C4FF000034FF000024FF0000194E766
:102AF0002DE9804C70B49A46934691E8380007C897
:102B000031EA400C48BF34EA430C03D5FFF7E6FD39
:102B1000FFF780FFF0BCBDE8008C2DE9804C70B45D
:102B20009A46934691E8380007C810F0804F08BFD6
:102B300013F0804F03D100F005F8FFF76BFFF0BCF6
:102B4000BDE8008C20F07F4723F07F4C80EA030033
:102B500000F0004007EB0C03A3F57C53A3F1FE0348
:102B600092F0000F00F0B38095F0000F00F0778036
:102B70002DE901494FEA114021EA00484FEA144685
:102B800024EA064700FB06FC08FB06F607FB08F8EC
:102B900018EB06484CEB164C00FB07F718EB074800
:102BA0004CEB17404FEA124B22EA0B4E4FEA154608
:102BB00025EA06470BFB06FC0EFB06F607FB0EFE9E
:102BC0001EEB064E4CEB164C0BFB07F71EEB074EAD
:102BD0004CEB174B18EB0B0840F1000018EB0E0BF9
:102BE00058EB000840F100008F1A4FF000014FF041
:102BF00000063CBFC943661B14BFB5EB040C0021A3
:102C00003CBFC943F61B4FEA174427EA04454FEA85
:102C10001C472CEA074C04FB076205FB07F70CFB7B
:102C200005F616EB074642EB174204FB0CFC16EBCD
:102C30000C4642EB1C421BEB060658EB02024141DC
:102C40004EEA8E0E46EA9E0601D5BDE80189B61908
:102C5000524141EB0101A3F10103BDE801894FEAB3
:102C6000144524EA05464FEA114721EA074C05FBC3
:102C700007F406FB07F70CFB06F111EB074144EBE9
:102C8000174405FB0CFC11EB0C4144EB1C444FEAD0
:102C9000124722EA074C05FB07F206FB07F70CFB7D
:102CA00006F616EB074642EB174205FB0CFC16EB4B
:102CB0000C4642EB1C456A1854F1000148BF7047AE
:102CC000B619524141EB0101A3F10103704795F0A0
:102CD000000F37D04FEA114221EA02464FEA14476B
:102CE00024EA074C02FB07F106FB07F70CFB06F48E
:102CF00014EB074441EB174102FB0CFC14EB0C44B2
:102D000041EB1C414FEA154725EA074C02FB07F54A
:102D100006FB07F70CFB06F616EB074645EB1745D7
:102D200002FB0CFC16EB0C4645EB1C42121951F150
:102D3000000148BF7047B619524141EB0101A3F1B0
:102D4000010370474FEA144524EA05464FEA11474C
:102D500021EA074C05FB07F106FB07F70CFB06F21F
:102D600012EB074241EB174105FB0CFC12EB0C4246
:102D700051EB1C414FF0000648BF7047921841EBE1
:102D80000101A3F101037047490050EAC12018BFB7
:102D900004204A0D18BF40F0010040F2FF72B2EB70
:102DA000515F08BF40F00200012808BF05207047AE
:102DB00030380A2801D201207047002070470000F7
:102DC00010B500290AD00878002807D005487844B3
:102DD000FEF756FB002801D0002010BD02487844C1
:102DE00010BD0000920A00008A0A000010B50029F8
:102DF0000AD00878002807D005487844FEF740FB41
:102E0000002801D0002010BD0248784410BD000009
:102E1000820A00007A0A0000FDF73ABFFEF76EB89A
:102E20000000000000000000303132333435363706
:102E300038394142434445464030580030313233FE
:102E400034353637383961626364656640307800FE
:102E50000400000800000000000000020001000063
:102E60001030313233343536373839616263646556
:102E70006678700030313233343536373839414274
:102E8000434445465850000002400000000000A0A6
:102E90000000000005400000000000C80000000025
:102EA0000C4000000000409C0000000019400000A1
:102EB0000020BCBE0000000034400000BFC91B8ED3
:102EC00000000004B5400000504BCFD06607E2CFB1
:102ED000010000006C4100003E8251AADFEEA734E1
:102EE00001000000D9420000DCB5A0E23A301F9793
:102EF000FFFFFFFFB4450000FD25A0C8E9A3C14FB7
:102F0000FFFFFFFFFF3F0000000000800000000007
:102F1000FF3F0000000000800000000000000000F3
:102F20000000005F00000007000700147F147F14FA
:102F3000242A7F2A1223130864623649552250003E
:102F400005030000001C2241000041221C0014085F
:102F50003E081408083E0808005030000008080821
:102F60000808006060000020100804023E51494536
:102F70003E00427F400042615149462141454B316C
:102F80001814127F1027454545393C4A49493001FC
:102F9000710905033649494936064949291E003653
:102FA00036000000563600000814224100141414A4
:102FB00014140041221408020151090632497941D2
:102FC0003E7E1111117E7F494949363E41414122E1
:102FD0007F4141221C7F494949417F090909013E3E
:102FE0004149497A7F0808087F00417F410020401D
:102FF000413F017F081422417F404040407F020C46
:10300000027F7F0408107F3E4141413E7F0909094C
:10301000063E4151215E7F091929464649494931F9
:1030200001017F01013F4040403F1F2040201F3FE2
:103030004038403F63140814630708700807615163
:10304000494543007F4141000204081020004141EE
:103050007F0004020102044040404040000102049D
:103060000020545454787F48444438384444442021
:10307000384444487F3854545418087E0901020CDF
:103080005252523E7F0804047800447D40002040A4
:10309000443D007F1028440000417F40007C04181C
:1030A00004787C0804047838444444387C141414AC
:1030B00008081414187C7C0804040848545454204C
:1030C000043F4440203C4040207C1C2040201C3CCD
:1030D0004030403C44281028440C5050503C44643C
:1030E000544C44000836410000007F000000413687
:1030F000080010080810081F247C241F424D9A0065
:10310000000000000000760000002800000004001D
:10311000000009000000010004000000000024007D
:10312000000000000000000000000000000000009F
:10313000000000000000000080000080000000800F
:10314000800080000000800080008080000080807F
:103150008000C0C0C0000000FF0000FF000000FFB2
:10316000FF00FF000000FF00FF00FFFF0000FFFF67
:10317000FF00000000000F000000F00000000F0042
:10318000000000F000000F000000F00000000F0041
:10319000000000000000FF424DD6000000000000CB
:1031A0000076000000280000001200000008000067
:1031B00000010004000000000060000000C40E00D8
:1031C00000C40E000000000000000000000000002D
:1031D000000000800000800000008080008000006F
:1031E00000800080008080000080808000C0C0C01F
:1031F000000000FF0000FF000000FFFF00FF0000D4
:1032000000FF00FF00FFFF0000FFFFFF0000AAAA71
:10321000AAAAAAAAAA0000000000AAAAAAAAAAAA60
:10322000AA0000000000AAAAAAAAAAAAAA0000004E
:1032300000000AAAAAAAAAAAA00000000000000092
:103240000AAAA00000000000000000000AAAA000D6
:10325000000000000000000000AA000000000000C4
:1032600000000000000000000000000000FF424DD0
:10327000C6000000000000007600000028000000EA
:10328000100000000A00000001000400000000001F
:1032900050000000000000000000000000000000DE
:1032A000000000000000000000008000008000001E
:1032B000008080008000000080008000808000008E
:1032C00080808000C0C0C0000000FF0000FF000040
:1032D00000FFFF00FF000000FF00FF00FFFF0000F5
:1032E000FFFFFF00000000000000000000000F00D2
:1032F00000F000000000F000000F000000000F0FC1
:10330000F0F000000000FFFFFFFF00000000FF0FD3
:10331000F0FF000000000FFFFFF00000000000FFC2
:10332000FF0000000000000FF0000000000000009F
:1033300000000000FF00424DC60000000000000039
:103340007600000028000000100000000A000000C5
:103350000100040000000000500000000000000018
:10336000000000000000000000000000000000005D
:1033700000008000008000000080800080000000CD
:10338000800080008080000080808000C0C0C0007D
:103390000000FF0000FF000000FFFF00FF00000032
:1033A000FF00FF00FFFF0000FFFFFF000000000024
:1033B000000000000000FF0000FF0000000FF00F01
:1033C000F00FF0000000FFF00FFF000000FFFFFF14
:1033D000FFFFFF0000FFF00FF00FFF0000FFFFFFF7
:1033E000FFFFFF00000FFFFFFFFFF000000000FFE6
:1033F000FF0000000000000000000000FF00424D40
:10340000C600000000000000760000002800000058
:10341000100000000A00000001000400000000008D
:10342000500000000000000000000000000000004C
:10343000000000000000000000008000008000008C
:1034400000808000800000008000800080800000FC
:1034500080808000C0C0C0000000FF0000FF0000AE
:1034600000FFFF00FF000000FF00FF00FFFF000063
:10347000FFFFFF00000000000000000000000FF050
:103480000FF0000000F0F000000F0F0000FFFFFF42
:10349000FFFFFF0000FFFFFFFFFFFF00000FF0FF37
:1034A000FF0FF0000000FFFFFFFF000000000F0013
:1034B00000F000000000F000000F0000000000001D
:1034C00000000000FF00424DC600000000000000A8
:1034D0007600000028000000100000000A00000034
:1034E0000100040000000000500000000000000087
:1034F00000000000000000000000000000000000CC
:10350000000080000080000000808000800000003B
:10351000800080008080000080808000C0C0C000EB
:103520000000FF0000FF000000FFFF00FF000000A0
:10353000FF00FF00FFFF0000FFFFFF000000000092
:1035400000000000000F0F0000F0F0000000F0FF8E
:10355000FF0F000000000F0000F000000000FFFF60
:10356000FFFF00000000FF0FF0FF000000000FFF52
:10357000FFF00000000000FFFF0000000000000F4F
:10358000F00000000000000000000000FF00424DBD
:10359000C6000000000000007600000028000000C7
:1035A000100000000A0000000100040000000000FC
:1035B00050000000000000000000000000000000BB
:1035C00000000000000000000000800000800000FB
:1035D000008080008000000080008000808000006B
:1035E00080808000C0C0C0000000FF0000FF00001D
:1035F00000FFFF00FF000000FF00FF00FFFF0000D2
:10360000FFFFFF0000000000000000000FF00000BE
:1036100000000FF0000FF00FF00FF0000000FFF0BF
:103620000FFF000000FFFFFFFFFFFF0000FFF00F94
:10363000F00FFF0000FFFFFFFFFFFF00000FFFFF85
:10364000FFFFF000000000FFFF000000000000008E
:1036500000000000FF00424DC60000000000000016
:103660007600000028000000100000000A000000A2
:1036700001000400000000005000000000000000F5
:10368000000000000000000000000000000000003A
:1036900000008000008000000080800080000000AA
:1036A000800080008080000080808000C0C0C0005A
:1036B0000000FF0000FF000000FFFF00FF0000000F
:1036C000FF00FF00FFFF0000FFFFFF000000000001
:1036D00000000000000F00000000F0000000F000FB
:1036E000000F0000000FFFFFFFFFF00000FFFFFFD3
:1036F000FFFFFF0000FFF0FFFF0FFF0000F0FFFFE4
:10370000FFFF0F0000F00F0000F00F000000F000BE
:10371000000F00000000000000000000FF00424D0C
:10372000C600000000000000760000002800000035
:10373000100000000A00000001000400000000006A
:103740005000000000000000000000000000000029
:103750000000000000000000000080000080000069
:1037600000808000800000008000800080800000D9
:1037700080808000C0C0C0000000FF0000FF00008B
:1037800000FFFF00FF000000FF00FF00FFFF000040
:10379000FFFFFF00000000000000000000F00F002D
:1037A0000F00F000000F00F0F00F00000000F0002C
:1037B00000F000000FF000000000FF000000F0002B
:1037C00000F00000000F0000000F000000F000F00B
:1037D000F000F00000000F000F00000000000000EB
:1037E00000000000FF20202020202020202020207A
:1037F0002000537061636520202020202020004994
:103800006E7661646572202020202000546F205362
:103810007461727420202020004E69636520547208
:103820007921202020005072657373205357322075
:1038300020200047616D65204F76657220202000B2
:10384000596F75722053636F7265202000256400E4
:103850008C39000000000020A0060000EC020000EF
:103860001C00000043000000F8FFFFFF0C000000F8
:103870000E0000000F0000002E00000010010000EC
:1038800043000000F8FFFFFF004040404040404040
:103890004040414141414140404040404040404023
:1038A00040404040404040404005020202020202C7
:1038B0000202020202020202022020202020202016
:1038C000202020020202020202029090909090902A
:1038D00010101010101010101010101010101010E8
:1038E000101010100202020202028888888888885C
:1038F0000808080808080808080808080808080848
:10390000080808080202020240000000000000004F
:1039100000000000000000000000000000000000A7
:103920000000000000000000000000000000000097
:103930000000000000000000000000000000000087
:103940000000000000000000000000000000000077
:103950000000000000000000000000000000000067
:103960000000000000000000000000000000000057
:103970000000000000000000000000000000000047
:0C3980000000000000000000000000003B
:040000050000026D88
:00000001FF
