:020000040000FA
:10000000600400206D020000710200007302000015
:100010007502000077020000790200000000000075
:100020000000000000000000000000007B02000053
:100030007D020000000000007F020000810200003D
:10004000830200008302000083020000830200009C
:10005000830200008302000083020000830200008C
:10006000830200008302000083020000830200007C
:10007000830200008302000083020000830200006C
:10008000830200008302000083020000830200005C
:10009000830200008302000083020000830200004C
:1000A000830200008302000083020000830200003C
:1000B000830200008302000083020000830200002C
:1000C000830200008302000083020000830200001C
:1000D000830200008302000083020000830200000C
:1000E00083020000830200008302000083020000FC
:1000F00083020000830200008302000083020000EC
:1001000083020000830200008302000083020000DB
:1001100083020000830200008302000083020000CB
:1001200083020000830200008302000083020000BB
:1001300083020000830200008302000083020000AB
:1001400000000000000000000000000000000000AF
:10015000830200008302000083020000830200008B
:10016000000000000000000000000000000000008F
:10017000000000000000000000000000000000007F
:10018000000000000000000000000000000000006F
:10019000000000000000000000000000000000005F
:1001A000000000000000000000000000000000004F
:1001B000830200008302000083020000830200002B
:1001C000830200008302000083020000830200001B
:1001D000830200008302000083020000830200000B
:1001E00083020000830200008302000083020000FB
:1001F00083020000830200008302000083020000EB
:10020000830200008302000083020000000000005F
:1002100083020000830200008302000083020000CA
:1002200083020000830200008302000083020000BA
:1002300083020000830200008302000083020000AA
:10024000830200008302000083020000830200009A
:10025000830200008302000083020000830200008A
:1002600083020000830200008302000000F00AB84D
:10027000FEE7FEE7FEE7FEE7FEE7FEE7FEE7FEE756
:10028000FEE7FEE700F002F800F042F814A696E858
:10029000000CB244B344DA4501D100F039F8BAE8B1
:1002A0000F000FA696E83000A5EB040504EB060747
:1002B000AAEB0704A7F101074FEA15154FEA34141A
:1002C000A4F10104AC4201D300F022F813F0010FB5
:1002D00018BFFB1A43F0010300F001F8DBE71847F1
:1002E0006C0300007C030000704700000023002422
:1002F00000250026103A28BF78C1FBD8520728BF36
:1003000030C148BF0B6070471FB51FBD10B510BD91
:1003100000F029F81146FFF7F7FF00F083F900F02D
:1003200047F803B4FFF7F2FF03BC00F04FF80000FA
:1003300072B6704762B67047EFF3108072B67047BE
:1003400080F31088704730BF704702480249014A65
:10035000024B704760000020600400206000002015
:10036000704770477047754600F02CF8AE460500A0
:100370006946534620F00700854618B020B5FFF7C0
:10038000E4FFBDE820404FF000064FF000074FF0BB
:1003900000084FF0000BAC46ACE8C009ACE8C0095F
:1003A000ACE8C009ACE8C00921F007018D467047F0
:1003B00010B50446AFF300802046BDE81040FFF7BB
:1003C000B0BF00000048704700000020014918201D
:1003D000ABBEFEE7260002007047000081B000209F
:1003E000ADF8020049F22801C4F20301086840F0A8
:1003F00008000860FFE749F20400C4F20300006847
:100400000007002801D4FFE7F5E749F2A800C4F28D
:10041000030000686FF31F30ADF80200BDF8020062
:1004200001B070474EF20861C4F20F01086840F055
:1004300010000860FFE74EF20860C4F20F00006889
:1004400000F01000102801D0FFE7F4E74EF2386109
:10045000C4F20F01086840F002000860FFE74EF2A6
:100460003860C4F20F00006800F00200022801D0DA
:10047000FFE7F4E744F21C51C4F20201086820F0DF
:100480002000086044F20041C4F20201086820F034
:100490002000086044F22851C4F20201086840F0CC
:1004A0002000086044F22041C4F20201086840F0D4
:1004B0002000086049F20001C4F20301086820F03E
:1004C0000800086049F6C472C4F2030201201060FB
:1004D00049F22002C4F2030240F22310106049F2F4
:1004E0001402C4F20302106820F47040106049F254
:1004F000A002C4F203020820106049F2A402C4F270
:1005000003020620106049F20802C4F203021068D8
:1005100020F008001060086840F00800086070478C
:1005200081B0ADF802008DF8011000208DF80000B8
:10053000BDF802009DF80110484340F60101C0F2E9
:100540008001A0FB0110C0088DF800009DF800009C
:100550009DF80110884205DDFFE79DF801008DF848
:100560000000FFE79DF8000001B0704782B00190E5
:10057000FFE7019888B1FFE741F61440C0F201009F
:100580000090FFE7009820B1FFE700980138009045
:10059000F8E7019801380190EBE702B070470000DE
:1005A00081B04EF27001C4F20F010091086840F072
:1005B00000400860086840F4006008604EF2600285
:1005C000C4F20F02106820F4F8601060106800F5A3
:1005D000A8601060086820F0700008600868086073
:1005E000086820F400500860086840F08040086007
:1005F0000868042262F39C500860FFE74EF2500046
:10060000C4F20F0000684006002801D4FFE7F5E7B8
:100610004EF27001C4F20F01086820F40060086017
:1006200001B0704780B582B000200190FFF7B8FF9D
:10063000FFF7F8FEFFE7FFF7D1FE5321FFF770FF4A
:100640008DF803000A20FFF791FFF4E75C06000035
:0C0650000000002060040000EC0200002C
:040000050000026D88
:00000001FF
